:020000040800F2
:1000000000180020F9020008ED1400082D12000865
:10001000E914000829060008A91D000800000000D6
:10002000000000000000000000000000390200088D
:100030005511000800000000950200084118000852
:100040001303000813030008130300081303000838
:100050001303000813030008130300081303000828
:100060001303000813030008130300081303000818
:100070001303000813030008130300081303000808
:1000800013030008130300081303000813030008F8
:1000900021070008130300081303000813030008D6
:1000A00013030008130300081303000813030008D8
:1000B00013030008130300081303000813030008C8
:1000C00013030008130300081303000813030008B8
:1000D00013030008DD1800081303000813030008C9
:1000E0001303000813030008130300081303000898
:1000F0001303000813030008130300081303000888
:100100001303000813030008130300081303000877
:100110001303000813030008130300081303000867
:100120001303000813030008130300081303000857
:100130001303000813030008130300081303000847
:100140001303000813030008130300081303000837
:100150001303000813030008130300081303000827
:100160001303000813030008130300081303000817
:100170001303000813030008130300081303000807
:10018000130300081303000800F002F800F044F81D
:100190000AA090E8000C82448344AAF10107DA45E2
:1001A00001D100F039F8AFF2090EBAE80F0013F0F0
:1001B000010F18BFFB1A43F001031847E8200000A5
:1001C00008210000103A24BF78C878C1FAD8520735
:1001D00024BF30C830C144BF04680C6070470000C1
:1001E0000023002400250026103A28BF78C1FBD840
:1001F000520728BF30C148BF0B607047642900F028
:100200000581732900F0AC81002070471FB502F012
:1002100039F81FBD10B510BD00F0D4F91146FFF735
:10022000F5FF01F08DFE00F0F2F903B4FFF7F2FFE5
:1002300003BC01F0BBFD00002C4B19680868B0E856
:10024000F04F80F30988BFF36F8F4FF0000080F309
:10025000118870470000000008480068006880F3BB
:1002600008884FF0000080F3148862B661B6BFF3CF
:100270004F8FBFF36F8F00DF00BF00BF08ED00E0BE
:10028000DFF80C00016841F470010160704700BFA5
:1002900088ED00E0EFF30980BFF36F8F134B1A680E
:1002A0001EF0100F08BF20ED108A20E9F04F1060FB
:1002B00009B44FF0500080F31188BFF34F8FBFF3A4
:1002C0006F8F01F0C7FE4FF0000080F3118809BC6A
:1002D00019680868B0E8F04F1EF0100F08BFB0ECC6
:1002E000108A80F30988BFF36F8F704734000020B5
:1002F000EFF3058070470000094880470948004730
:10030000FEE7FEE7FEE7FEE7FEE7FEE7FEE7FEE7C5
:10031000FEE7FEE704480549054A064B7047000022
:10032000751800088901000800040020001800204A
:1003300000080020000800200FB4044910B503AAEB
:10034000029800F011F910BC5DF814FB1C000020AD
:100350002DE9F0410E460446002020622046E16867
:10036000884730B3252805D0D4E901219047206A79
:10037000401CF2E7E168204600278847050018D0B6
:10038000A5F14100192802D820354FF40067324604
:10039000294620462760FFF731FF40B1012804D0ED
:1003A000F61D26F007060836D8E7361DD6E728469C
:1003B000DAE7206ABDE8F08170B50C460546012AEF
:1003C00005D02878800600D5EA69002302E00123E1
:1003D00005E05B1C934202D2E05C0028F9D1A869D9
:1003E000E618C01AA861286A184428622846AFF3A4
:1003F000008004E0D5E9012114F8010B9047B442D4
:10040000F8D32846AFF3008070BD00002DE9F0411D
:100410000646002410687529314616A510D0AFF3A2
:100420000080002802DA404213A507E031688A07FD
:1004300001D512A502E0490704D511A5012401E068
:10044000AFF3008000210A2206F1240709E0B0FB87
:10045000F2FCB0FBF2F302FB1C003030785418467B
:10046000491C0028F3D123462A463046BDE8F04116
:1004700000F00BB8000000002D0000002B00000071
:10048000200000007047704770472DE9F0470D4687
:1004900099469246044600F124080168880604D56E
:1004A000E06921F01001216000E00120A84201DD97
:1004B000471B00E00027A1697A1902EB0900081A1E
:1004C000A0612078C00602D42046AFF30080002649
:1004D00008E0D4E901211AF806009047206A401C80
:1004E000761C20624E45F4DB2078C0060AD52046F3
:1004F000AFF3008006E0D4E9012130209047206A64
:10050000401C2062381EA7F10107F4DC07E0D4E9A3
:10051000012118F805009047206A401C2062281E1F
:10052000A5F10105F3DC2046AFF30080207800063A
:1005300002D50220BDE8F0870120FBE710B5436932
:1005400013B1AFF3008001E0FFF736FF012010BDCB
:10055000127800F124010A7000224A700122EDE7AE
:1005600011684FF0FF32E9E7074B70B50D467B4449
:1005700000F011F80446284600F020F810B14FF0C2
:10058000FF3070BD204670BD6B19000001694A1C28
:1005900002610878704700B58FB0CDE901310021C4
:1005A000059105497944CDE9031011466846FFF7E6
:1005B000CFFE0FB000BD0000E5FFFFFF007B00F0A5
:1005C00080007047754600F02BF8AE46050069467E
:1005D000534620F00700854618B020B5FFF79AFE75
:1005E000BDE820404FF000064FF000074FF0000834
:1005F0004FF0000B21F00701AC46ACE8C009ACE8B5
:10060000C009ACE8C009ACE8C0098D46704710B518
:100610000446AFF300802046BDE81040FFF705BE5A
:10062000004870479C03002000BFFEE700B58BB078
:100630000121084600F0A2FF09220B21364800F0F4
:10064000D2FD09220C21344800F0CDFD4FF4C050FA
:10065000099002208DF828008DF8290000208DF8DF
:100660002A0001208DF82B0009A92B4800F073FD0A
:100670000121480600F092FF284800F0CBF8002046
:100680008DF81E008DF81F008DF820008DF82100D8
:100690008DF822008DF823008DF81A008DF81B00CC
:1006A0000B208DF81C0007208DF81D000220ADF8EE
:1006B000180006A9194800F0E6F900208DF812008C
:1006C0008DF8130001208DF814000020ADF8100003
:1006D000ADF80800ADF80A00ADF80C00ADF80E005A
:1006E00001208DF8150002A800F0B0F814208DF854
:1006F000040002208DF805008DF8060001208DF819
:10070000070001A800F0F4FE01220221034800F0D6
:10071000B1F90BB000BD00000000024000640040D1
:1007200000B585B002210F4800F014F9012816D158
:100730006A4600210B4800F030FA002005E00DF178
:100740000B010A5C08490A54401C0828F7DB0648DC
:10075000001F019901600221024800F007F805B06E
:1007600000BD000000640040A0000020B1F5007F43
:100770003AD00FDC202928D006DC01291CD004291E
:100780001DD0082940D11DE0402921D0B1F5807F3E
:100790003AD126E0B1F5004F31D006DCB1F5806FDB
:1007A00025D0B1F5006F2FD124E0B1F5803F12D0F4
:1007B000B1F5003F28D111E0154A826025E00822FA
:1007C000C26022E01022C2601FE0082202611CE029
:1007D0001022026119E00822426016E010224260F5
:1007E00013E00422426010E0042242600DE0042283
:1007F00042600AE0002282610422426005E0002299
:1008000082610422426000E000BF00BF7047000028
:100810000101010010B504460B48844209D10121B1
:10082000480600F0CBFE00214FF0007000F0C6FE3D
:1008300008E00121880600F0C1FE00214FF0806031
:1008400000F0BCFE10BD00000064004010B50021A7
:10085000837A012202FA03F13D4A126842F0010252
:100860003B4B1A603A4A1C3212688A43384B1C339D
:100870001A60027BCAB9364A0C3212688A43344B7A
:100880000C331A604288C38842EA0343304A40323C
:10089000847A42F834300288838842EA03432C4A3F
:1008A0004032847A02EBC4025360027B012A19D1E0
:1008B000274A0C3212680A43254B0C331A604288CF
:1008C000038842EA0343224A4032847A42F83430B1
:1008D000C288838842EA03431D4A4032847A02EB8D
:1008E000C4025360C27A3AB9194A121D12688A4387
:1008F000174B1B1D1A6006E0154A121D12680A43A9
:10090000134B1B1D1A60028932B9114A1432126846
:100910008A430F4B14331A600289012A06D10C4A0C
:10092000143212680A430A4B14331A60427B012ABC
:1009300006D1074A1C3212680A43054B1C331A6061
:10094000034A126822F00102014B1A6010BD000038
:100950000066004070B504460D46002660692840D8
:10096000002871D0B5F5807F5CD010DC082D35D023
:1009700006DC012D20D0022D24D0042D72D127E0D9
:10098000102D31D0202D35D0402D6BD138E0B5F56C
:10099000004F60D009DCB5F5007F49D0B5F5806F18
:1009A0004CD0B5F5006F5DD14FE0B5F5803F2DD04F
:1009B000B5F5003F56D12FE0A0682D4900F044FA6C
:1009C000064651E0E068032100F03EFA06464BE09F
:1009D000E068082100F038FA064645E0E06810219A
:1009E00000F032FA06463FE02069032100F02CFABD
:1009F000064639E02069082100F026FA064633E071
:100A00002069102100F020FA06462DE060680821D8
:100A100000F01AFA064627E06068102100F014FA88
:100A2000064621E0A069012100F00EFA06461BE00F
:100A3000A069022100F008FA064615E0A069042129
:100A400000F002FA06460FE00FE0A069702100F006
:100A5000FBF9064608E06068042100F0F5F9064657
:100A600002E0FFE7002600BF00E00026304670BD30
:100A7000010101001AB143690B43436102E043697C
:100A80008B434361704730B5024600200023146851
:100A900024F002041460146844F00104146000E0BF
:100AA0005B1C546804F001041CB94FF6FF74A342A8
:100AB000F6D1546804F001040CB900206CE08C7984
:100AC000012C04D1146844F08004146003E014681D
:100AD00024F080041460CC79012C04D1146844F013
:100AE0004004146003E0146824F0400414600C7A9D
:100AF000012C04D1146844F02004146003E014684D
:100B000024F0200414604C7A012C04D1146844F0C1
:100B10001004146003E0146824F0100414608C7A4C
:100B2000012C04D1146844F00804146003E0146834
:100B300024F008041460CC7A012C04D1146844F029
:100B40000404146003E0146824F0040414608C7836
:100B5000A407CD7844EA05640D7944EA05444D794B
:100B600044EA05540D886D1E2C43D461146824F0AA
:100B700001041460002300E05B1C546804F00104CD
:100B80001CB14FF6FF74A342F6D1546804F001047F
:100B90000CB1002000E0012030BD10B500F5D87385
:100BA00003EB01131B6803F004031372137A53B9A8
:100BB00000F5D87303EB01131B6840F2FF7404EADD
:100BC0005353136009E000F5D87303EB01131B685E
:100BD0006FF0604404EAD303536000F5D87303EB6D
:100BE00001131B6803F00203537200F5D87303EB83
:100BF00001135B6803F00F03937200F5D87303EBE6
:100C000001135B681B0AD37400F5D87303EB01135F
:100C10009B68D37200F5D87303EB01139B681C0A21
:100C2000147300F5D87303EB01139B681C0C547309
:100C300000F5D87303EB01139B681B0E937300F54B
:100C4000D87303EB0113DB68D37300F5D87303EBA0
:100C50000113DB681C0A147400F5D87303EB01134D
:100C6000DB681C0C547400F5D87303EB0113DB68CC
:100C70001B0E937411B92023C36001E0202303618C
:100C800010BD10B502460020936803F08063B3F1F5
:100C9000806F00D110E0936803F00063B3F1006F40
:100CA00001D1012008E0936803F08053B3F1805F25
:100CB00001D1022000E00420042874D002F5C073A2
:100CC00003EB00131B6803F0010402F5C07303EB90
:100CD00000131C600B7A7BB94B7A0C8843EA4453AF
:100CE00002F5C07404EB00142468234302F5C074B9
:100CF00004EB0014236010E00B7A4C6843EAC40351
:100D00004C7A234302F5C07404EB00142468234397
:100D100002F5C07404EB001423608B7A03F00F0318
:100D20008B7202F5C07303EB00135B6823F00F04B2
:100D300002F5C07303EB00135C6002F5C07303EBB4
:100D400000135B688C7A234302F5C07404EB001433
:100D500063608B7B1C064B7B44EA03440B7B44EAB9
:100D60000323CC7A234302F5C07404EB0014A36080
:100D70008B7C1C064B7C44EA03440B7C44EA032333
:100D8000CC7B234302F5C07404EB0014E36002F54E
:100D9000C07303EB00131B6843F0010402F5C0733A
:100DA00003EB00131C6010BD10B50246002321B1F7
:100DB000012907D002290FD109E090681D4C00EAF3
:100DC00004030BE090681C4C00EA040306E0906802
:100DD0001A4C00EA040301E0002300BF00BF184CD6
:100DE000181BA34216D007DC83B16FF08060184453
:100DF00070B1022818D111E0B0F5007F10D0114C6D
:100E0000204448B1B0F5003F0ED10BE002230DE0C5
:100E100000230BE0002309E0002307E0012305E0A5
:100E2000012303E0012301E0002300BF00BFD8B28B
:100E300010BD0000030000040003000800000310C0
:100E4000000100080001FFF70246002002EA01034A
:100E50000BB1012000E000207047000010B52DED1F
:100E6000028B0446B0EE408AF0EE608AB0EE682A4B
:100E7000DFED061AB0EE481ADFED040A9FED030A13
:100E8000204600F005F8BDEC028B10BD000000000C
:100E900010B52DED068B84B00446B0EE40AAB0EE3E
:100EA000608AF0EE418AB0EE619AF0EE429A00203C
:100EB000019002900390019820F0F85000F18070AA
:100EC0000190019864F3070001901020B2EE081A17
:100ED000FAEE080AB0EE4A0A00F0ADFF019960F39D
:100EE00017210191019820F0604001901020B2EE8E
:100EF000091AFAEE090AB0EE480A00F09CFF000A4F
:100F00008DF808001020B2EE091AFAEE090AB0EEC8
:100F1000480A00F090FFC1B28DF809101020B3EE1E
:100F20000E1AFBEE0E0AB0EE680A00F084FF010A0A
:100F30008DF80A101020B3EE0E1AFBEE0E0AB0EE7A
:100F4000680A00F078FFC1B28DF80B1010209FEDF9
:100F50001B1ADFED1B0AB0EE490A00F06CFF010A14
:100F60008DF80C1010209FED151ADFED150AB0EE6C
:100F7000490A00F060FFC1B28DF80D101020B1EEEB
:100F8000041ADFED0F0AB0EE690A00F054FF010AFF
:100F90008DF80E101020B1EE041ADFED090AB0EE44
:100FA000690A00F048FFC1B28DF80F1001A800F0E7
:100FB00099FB04B0BDEC068B10BD00000000FA43A5
:100FC000000000003EB504460D4600200090019050
:100FD0000290009820F0F85000F1407000900098C6
:100FE00064F307000090E9B2009861F317200090C5
:100FF000009820F060400090002003E0002201A94A
:101000000A54401C0828F9DB684600F06BFB3EBD23
:10101000FEB505460E46CA22174918A0FFF78CF9FF
:101020000020009001900290009820F0F85000906D
:10103000009820F0FF0000900021009861F3172035
:101040000090009820F060400090002003E0002213
:1010500001A90A54401C0828F9DB684600F042FB4D
:10106000044621460BA0FFF767F9E122024903A0DD
:10107000FFF762F9FEBD00009322000846554E437B
:1010800054494F4E3A2573094C494E453A25640D53
:101090000A0000007265743D25640D0A000000001E
:1010A0000EB511A0FFF748F9FFF7C0FA694602A88C
:1010B000FFF7AEFF1249087812490978FFF782FF5F
:1010C0000F4948780F490978FFF77CFF0C49887869
:1010D0000C490978FFF776FF0949C878094909786A
:1010E000FFF770FF0EBD00004379626572476561CE
:1010F0007220496E6974696E672E2E2E0D0A0000EB
:1011000025000020240000203EB504460D460020A6
:10111000009001900290009820F0F85000F180605B
:101120000090009864F307000090E9B2009861F322
:1011300017200090009820F060400090002003E00D
:10114000002201A90A54401C0828F9DB684600F077
:10115000C9FA3EBD7047F0B50A46002100230024BD
:1011600000BF3DE0012505FA01F3156805EA030417
:101170009C4234D105684F000326BE40B54305604C
:1011800015794E00B5400668354305601579012D87
:1011900002D01579022D16D185684F000326BE4076
:1011A000B543856055794E00B54086683543856006
:1011B000456801268E40B5434560456896798E4066
:1011C000B6B235434560C5684F000326BE40B543FF
:1011D000C560D5794E00B540C6683543C560491C29
:1011E0001029BFD3F0BDF0B5002300244D07ED0E4C
:1011F00002FA05F3CE1000F1200555F826504E07EF
:10120000F70E0F26BE40B543CF1000F1200646F87A
:101210002750CE1000F1200555F8265045EA03046A
:10122000CE1000F1200545F82640F0BD00BFFEE7D6
:1012300070B502460025002300240026938A03F09F
:10124000020010B923F0100008B1148B01E0002057
:1012500070BD240443EA040020F07F4505EA010044
:10126000884201D1012600E000263046F0E721B196
:10127000028842F00102028004E002884FF6FE7309
:101280001A400280704721B1028842F480720280C5
:1012900004E002884FF6FF631A400280704721B1D4
:1012A000028842F40072028004E002884FF6FF5385
:1012B0001A400280704700002DE9FF4704460D46A2
:1012C0000026B1460427DFF8CC80A6884FF6C07010
:1012D0000640684600F092F9DDF808802E48B8FB19
:1012E000F0F01FFA80F946EA0906A68020884FF63A
:1012F000FE710840208000262849286888420CD8C2
:1013000028684000B8FBF0F087B2042F00DA042709
:101310003E4309F10100208427E0E8884BF6FF7185
:10132000884206D1286800EB4000B8FBF0F087B295
:1013300009E0286800EBC00101EB0010B8FBF0F0F9
:1013400087B247F48047C7F30B0008B947F001079D
:1013500047F4004006434FF4967009FB00F04FF449
:101360007A7190FBF1F0401C2084A683208840F025
:101370000100208026884FF6F5300640A88869894C
:10138000084306432680A889298908432081BDE8AF
:10139000FF87000000127A0040420F00A086010083
:1013A00012B141F0010101E001F0FE01018270473C
:1013B0000182704700B587B00121880500F0DEF892
:1013C0000121022000F0DAF84FF44060059002207D
:1013D0008DF8180001208DF81A008DF81B000220EE
:1013E0008DF8190005A91C48FFF7B5FE0020ADF8DF
:1013F00008004CF2503001904BF6FF70ADF80A0037
:101400004FF48060ADF80E000001ADF81000002030
:10141000ADF80C0001A91148FFF74EFF01210F485C
:10142000FFF725FF01216B2000F02CF800216C2034
:1014300000F028F80921192000F024F806211A20CC
:1014400000F020F818211B2000F01CF818211C20A7
:1014500000F018F807B000BD00040240005800403A
:1014600070B505460E4642F2107402E0641E04B9DF
:1014700005E031462846FFF7DBFE0128F6D100BF24
:1014800070BD000070B504460D4601211348FFF7FA
:10149000FAFE13491148FFF7E3FF0022D0210F485D
:1014A000FFF77EFF0F490D48FFF7DAFF21460B4893
:1014B000FFF77EFF0B49891E0848FFF7D1FF294639
:1014C0000648FFF775FF0749891C0448FFF7C8FF66
:1014D00001210248FFF7E3FE70BD00000058004004
:1014E000010003008200070000BFFEE77047000014
:1014F00070B5002100230F22C4781CB3174C246858
:1015000004F4E064C4F5E064C4F30721C1F1040409
:10151000E3B20A4144789C40E1B28478144021430C
:101520000C07210E0E4C05786155047804F01F0558
:101530000124AC4005786D11AD0005F1E025C5F83A
:10154000004109E0047804F01F050124AC40054D7A
:101550000678761145F8264070BD00000CED00E0DD
:1015600000E400E080E100E002490143024A11602A
:10157000704700000000FA050CED00E029B1064AB2
:1015800012680243044B1A6004E0034A1268824363
:10159000014B1A60704700003038024029B1064AFA
:1015A00012680243044B1A6004E0034A1268824343
:1015B000014B1A60704700004038024029B1064ACA
:1015C00012680243044B1A6004E0034A1268824323
:1015D000014B1A60704700002038024029B1064ACA
:1015E00012680243044B1A6004E0034A1268824303
:1015F000014B1A607047000044380240F0B50021EA
:1016000000220024022500260223324F3F6807F003
:101610000C0121B1042905D0082937D105E02E4F4E
:10162000076036E02D4F076033E02A4F3F1F3F68C9
:10163000C7F38056274F3F1F3F6807F03F036EB147
:10164000264FB7FBF3F7DFF88CC0ACF1040CDCF8E5
:1016500000C0CCF3881C07FB0CF40CE01E4FB7FB5A
:10166000F3F7DFF870C0ACF1040CDCF800C0CCF389
:10167000881C07FB0CF4174F3F1F3F68C7F3014757
:101680007F1C7D00B4FBF5F7076002E0124F076096
:1016900000BF00BF0F4F3F6807F0F0010909104F6E
:1016A0007A5C0768D74047600A4F3F6807F4E0510B
:1016B000890A0B4F7A5C4768D7408760054F3F68BF
:1016C00007F46041490B064F7A5C4768D740C76012
:1016D000F0BD0000083802400024F40000127A0037
:1016E0000000002070B586B00646642508208DF8FD
:1016F0000E0004208DF80C0000208DF80D003068DD
:101700000290002005E0311D0A5C0DF10F010A5422
:10171000401C0828F7DB01A90D48FFF7B2FA044680
:1017200000BF6D1E322000F067FB21460848FFF71E
:101730003BFB012801D0002DF3D1012000F05CFB20
:10174000002D03DC4FF0FF3006B070BD0020FBE73A
:10175000006400400CB500200190009034480068FF
:1017600040F480303249086000BF3148006800F41E
:10177000003000900198401C0190009818B9019821
:10178000B0F5A04FF1D12A48006800F4003010B144
:101790000120009001E0002000900098012846D12F
:1017A00023484030006840F08050214940310860B3
:1017B0002048006840F440401E4908601C4808303A
:1017C00000681B49083108600846006840F4004082
:1017D00008600846006840F4A05008601648091FD9
:1017E0000860081F006840F08070091F086000BF93
:1017F0000F48006800F000700028F9D040F2057032
:101800000E4908600A480830006820F003000849C3
:10181000083108600846006840F00200086000BF18
:1018200003480830006800F00C000828F8D10CBD0F
:10183000003802400070004008544007003C02405D
:1018400010B500BF502080F31188BFF34F8FBFF356
:101850006F8F00BF00F044FC18B14FF08050044976
:10186000086000BF002080F3118800BF10BD000099
:1018700004ED00E010B51548006840F4700013490D
:1018800008601348006840F001001149086000201A
:101890000F49083108600E4800680E4908400C499D
:1018A00008600D48091D0860081F006820F48020AA
:1018B000091F0860002006490C310860FFF74AFF45
:1018C0004FF0006001498039086010BD88ED00E0EC
:1018D00000380240FFFFF6FE103000242DE9FC5FC7
:1018E00040F22551604800F095F901287AD15E4810
:1018F00000F055FAC4B25D48007840B9FF2C05D11C
:1019000001205A490870002059490870A4E057483E
:101910000078012810D15748554909784454544853
:101920000078401C52490870084600780528EDDB15
:1019300002204E4908708FE04C4800780228E5D11B
:10194000FE2CE3D100204949087001204A49087063
:1019500048480578407806094648407800F00F0767
:10196000444880784FEA1018642016FB00F007EB1B
:10197000870100EB410040441FFA80F93D48807820
:1019800000F00F0001903B48C0784FEA101A394828
:10199000C07800F00F0B6421019810FB01F00AEBF6
:1019A0008A0100EB4100584480B20090032D32D0F0
:1019B00005DC5DB1012D1AD0022D4BD123E0042DA1
:1019C00031D01F2D42D0FF2D44D134E0FFF768FB0A
:1019D000B1EE040A00F058FA28A0FEF7ADFC254845
:1019E000417800E03EE028A0FEF7A6FC32E02CA003
:1019F000FEF7A2FC49462CA0FEF79EFC2CA0009905
:101A0000FEF79AFC26E0FFF74BFB00F0D1F92AA085
:101A1000FEF792FC1EE0FFF743FB00F06DFA28A0F2
:101A2000FEF78AFC16E0FFF73BFB00F0D1FA27A097
:101A3000FEF782FC0EE000F0EFFA27A0FEF77CFC38
:101A40000C48017826A0FEF777FC03E02AA0FEF7F9
:101A500073FC00BF00BF00BF40F22551024800F0F8
:101A6000BEF800BFBDE8FC9F00100140220000202E
:101A700023000020150000201A000020666F7277F6
:101A80006172640D0A00000053657269616C5F52F7
:101A9000785061636B65745B315D3A25640D0A00B3
:101AA0006D6F76650D0A0000783A25640A00000023
:101AB000793A25640A0000006272616B650D0A00C4
:101AC0006C656674207475726E0D0A0072696768C1
:101AD000742043570D0A000073746F700D0A0000E4
:101AE00053657269616C5F52785061636B65745BBA
:101AF000305D3A25640D0A00636F6E6E6563742075
:101B00007375636365737366756C6C790D0A000099
:101B100010B588B0044601210846FFF72FFD0121CA
:101B20001020FFF75BFD072209212648FFF75BFB2A
:101B300007220A212348FFF756FB4FF4C0600690A6
:101B400002208DF81C008DF81D0000208DF81E006D
:101B500001208DF81F0006A91A48FFF7FCFA0121A1
:101B6000194800F011F902940020ADF80C00ADF80E
:101B70000E00ADF81000ADF814000C20ADF8120006
:101B800002A9114800F096F801210F4800F036F83C
:101B900040210D4800F01AF8012240F225510A4870
:101BA00000F062F825208DF8040003208DF8050070
:101BB0008DF8060001208DF8070001A8FFF798FCBA
:101BC00008B010BD000002400010014001F4007296
:101BD000B2F5007F00D100BFCA430280704710B544
:101BE0000022002340F66A14A14200D100BF0A126D
:101BF00001249440A3B2DC43048010BD21B182894A
:101C000042F40052828104E082894DF6FF731A404B
:101C10008281704770B50246002400230025002011
:101C200040F66A16B14200D100BFC1F3421501F07F
:101C30001F03012606FA03F3012D02D196893340D2
:101C400006E0022D02D1168A334001E0968A334025
:101C50000C12012606FA04F41688344013B10CB1B4
:101C6000012000E0002070BDF0B5034600240026EE
:101C70000025002040F66A17B94200D100BF18467F
:101C8000C1F3421401F01F06012707FA06F5012CE3
:101C900001D10C3004E0022C01D1103000E01430EE
:101CA0001AB107682F43076002E00768AF43076077
:101CB000F0BD00002DE9FF4705460E460024A14671
:101CC00000BFA046B08900B100BF2C8A24F4405464
:101CD000F08804432C82AC8941F20C608443B088C4
:101CE00031890843718908430443AC81AC8A24F4E8
:101CF0004074B0890443AC826846FFF77FFC2048FB
:101D0000854202D01F48854202D1DDF80C9001E0E7
:101D1000DDF80890A88900F4004040B109EBC90043
:101D200000EB091031684900B0FBF1F707E009EB5F
:101D3000C90000EB091031688900B0FBF1F764209D
:101D4000B7FBF0F004012009642101FB1078A88999
:101D500000F4004040B1322000EBC800B0FBF1F0CD
:101D600000F00700044308E0322000EB0810642173
:101D7000B0FBF1F000F00F0004432C81BDE8FF87B9
:101D8000001001400014014021B1828942F4004258
:101D9000828103E08289C2F30E028281704701468C
:101DA0008888C0F30800704700BFFEE700BF704797
:101DB00010B510490878F6EE000AB9EE040AFFF7EC
:101DC0004DF80C494878F6EE000AB9EE040AFFF720
:101DD00045F808498878F6EE000AB9EE040AFFF7DC
:101DE0003DF80449C878F6EE000AB9EE040AFFF798
:101DF00035F810BD2500002015E000214FF0E0224D
:101E0000116145F207215161002191611146096973
:101E100041F00101116100BF4FF0E021096901F4B7
:101E200080310029F8D0011EA0F10100E5D14FF06A
:101E3000E02211617047014671EE602AF0EE621AED
:101E4000B0EE602AB4EEC10AF1EE10FA02DDB0EE97
:101E5000410A06E0B4EEE00AF1EE10FA01D2B0EE6B
:101E6000600A30EE423A01208840401E02EE900A9D
:101E7000F8EEE22A63EE222A82EEA13AFDEEC32AB0
:101E800012EE900A7047000010B52DED028BB0EEF7
:101E9000408A11490878F6EE000AB0EE480AFEF7CB
:101EA000DDFF0D494878F6EE000AB0EE480AFEF76D
:101EB000D5FF09498878F6EE000AB0EE480AFEF729
:101EC000CDFF0549C878F6EE000AB0EE480AFEF7E5
:101ED000C5FFBDEC028B10BD2500002000BF054AE8
:101EE000128802F04002002AF9D0C2B2014B9A8057
:101EF000704700000010014010B510490878F6EE58
:101F0000000AB1EE040AFEF7A9FF0C494878F6EE84
:101F1000000AB9EE040AFEF7A1FF08498878F6EE38
:101F2000000AB1EE040AFEF799FF0449C878F6EEFC
:101F3000000AB9EE040AFEF791FF10BD250000204B
:101F40004FF4A060FFF710FB4FF4E130FFF7E0FD26
:101F5000FFF730FA05A0FEF7EFF91A2209490AA0A7
:101F6000FEF7EAF900BF00BFFEE7000043796265B3
:101F700072476561722072756E20746573742E2EBF
:101F80002E0D0A008E22000846554E4354494F4EEE
:101F90003A2573094C494E453A25640D0A00000064
:101FA00009480068006808B9012000E0002020B15D
:101FB0004FF0FF300549086005E003480068C0683D
:101FC0000068024908607047380000206400002063
:101FD00010B510490878F6EE000AB9EE040AFEF7CB
:101FE0003DFF0C494878F6EE000AB1EE040AFEF710
:101FF00035FF08498878F6EE000AB9EE040AFEF7C4
:102000002DFF0449C878F6EE000AB1EE040AFEF787
:1020100025FF10BD2500002010B50C4908780C499B
:102020000978FFF771F80949487809490978FFF7F5
:102030006BF80649887806490978FFF765F803497F
:10204000C87803490978FFF75FF810BD2500002024
:10205000240000201D48006818B101201C490860B8
:1020600032E000201A4908601A480068B0FA80F08F
:10207000C0F11F0101EB8100174A52F8200008B19E
:10208000012000E0002050B900BF502080F31188EB
:10209000BFF34F8FBFF36F8F00BF00BFFEE701EBB1
:1020A00081020D4B03EB820042685268426000F1EE
:1020B00008024368934202D1426852684260426813
:1020C000D268064B1A6000BF704700007000002005
:1020D000580000204C000020B800002034000020F0
:1020E0002DE9F0414FF000085B48006800287DD1E1
:1020F0005A480068451C5948056015BB5848006897
:10210000006808B9012000E0002050B900BF50204D
:1021100080F31188BFF34F8FBFF36F8F00BF00BFF5
:10212000FEE74F4807684F4800684D4908604D4832
:1021300007604D480068401C4B490860FFF730FFBE
:1021400000BF4A480068854277D300BF4448006812
:10215000006808B9012000E0002020B14FF0FF30F6
:102160004249086068E03E480068C068C468666824
:10217000B54202D23D4806605EE06069D4E90212D1
:102180008A60D4E902214A60211D42688A4201D155
:10219000E1684160002262610168491E0160A06A35
:1021A00098B1A06AD4E907128A60D4E907214A608D
:1021B00004F1180142688A4201D1216A416000227B
:1021C000A2620168491E016000BF94F82C10012032
:1021D000884027490968084325490860E16A01EBFE
:1021E0008101244A02EB8101486800E02BE0A060F5
:1021F0008268E260211D826851608160E16A01EBC2
:1022000081011C4A02EB81026261E16A01EB8101FA
:10221000184A52F82110491CE26A02EB8202154B5F
:1022200043F822101449E06A0968C96A88428DD9C6
:102230004FF001088AE700E000BF1048006808B1CD
:102240004FF0010804E00E480068401C0C4908608B
:102250004046BDE8F08100007000002048000020EA
:10226000380000203C0000205C00002064000020BA
:102270004C000020B800002034000020580000204E
:10228000540000204FF04070E1EE100A70476D617D
:10229000696E004379626572476561725F49645F88
:1022A00067657400C422000800000020740000006C
:1022B000C401000838230008740000208C170000B7
:1022C000E001000800000000010203040102030411
:1022D00006070809000000000000000000000000E0
:1022E0000000000000000000640102030400000080
:1022F00000000000000000000000000000000000DE
:1023000000000000000000000000000000000000CD
:1023100000000000000000000000000000000000BD
:1023200000000000000000000000000000000000AD
:082330001F0000000000000086
:04000005080002F9F4
:00000001FF
